{
  "_format": "hh-sol-artifact-1",
  "contractName": "Ravers",
  "sourceName": "contracts/Ravers.sol",
  "abi": [
    {
      "inputs": [],
      "stateMutability": "nonpayable",
      "type": "constructor"
    },
    {
      "anonymous": false,
      "inputs": [
        {
          "indexed": true,
          "internalType": "address",
          "name": "owner",
          "type": "address"
        },
        {
          "indexed": true,
          "internalType": "address",
          "name": "approved",
          "type": "address"
        },
        {
          "indexed": true,
          "internalType": "uint256",
          "name": "tokenId",
          "type": "uint256"
        }
      ],
      "name": "Approval",
      "type": "event"
    },
    {
      "anonymous": false,
      "inputs": [
        {
          "indexed": true,
          "internalType": "address",
          "name": "owner",
          "type": "address"
        },
        {
          "indexed": true,
          "internalType": "address",
          "name": "operator",
          "type": "address"
        },
        {
          "indexed": false,
          "internalType": "bool",
          "name": "approved",
          "type": "bool"
        }
      ],
      "name": "ApprovalForAll",
      "type": "event"
    },
    {
      "anonymous": false,
      "inputs": [
        {
          "indexed": true,
          "internalType": "address",
          "name": "previousOwner",
          "type": "address"
        },
        {
          "indexed": true,
          "internalType": "address",
          "name": "newOwner",
          "type": "address"
        }
      ],
      "name": "OwnershipTransferred",
      "type": "event"
    },
    {
      "anonymous": false,
      "inputs": [
        {
          "indexed": true,
          "internalType": "address",
          "name": "from",
          "type": "address"
        },
        {
          "indexed": true,
          "internalType": "address",
          "name": "to",
          "type": "address"
        },
        {
          "indexed": true,
          "internalType": "uint256",
          "name": "tokenId",
          "type": "uint256"
        }
      ],
      "name": "Transfer",
      "type": "event"
    },
    {
      "inputs": [
        {
          "internalType": "address",
          "name": "to",
          "type": "address"
        },
        {
          "internalType": "uint256",
          "name": "tokenId",
          "type": "uint256"
        }
      ],
      "name": "approve",
      "outputs": [],
      "stateMutability": "nonpayable",
      "type": "function"
    },
    {
      "inputs": [
        {
          "internalType": "address",
          "name": "owner",
          "type": "address"
        }
      ],
      "name": "balanceOf",
      "outputs": [
        {
          "internalType": "uint256",
          "name": "",
          "type": "uint256"
        }
      ],
      "stateMutability": "view",
      "type": "function"
    },
    {
      "inputs": [
        {
          "internalType": "uint256",
          "name": "tokenId",
          "type": "uint256"
        }
      ],
      "name": "getApproved",
      "outputs": [
        {
          "internalType": "address",
          "name": "",
          "type": "address"
        }
      ],
      "stateMutability": "view",
      "type": "function"
    },
    {
      "inputs": [
        {
          "internalType": "address",
          "name": "owner",
          "type": "address"
        },
        {
          "internalType": "address",
          "name": "operator",
          "type": "address"
        }
      ],
      "name": "isApprovedForAll",
      "outputs": [
        {
          "internalType": "bool",
          "name": "",
          "type": "bool"
        }
      ],
      "stateMutability": "view",
      "type": "function"
    },
    {
      "inputs": [],
      "name": "mintRate",
      "outputs": [
        {
          "internalType": "uint256",
          "name": "",
          "type": "uint256"
        }
      ],
      "stateMutability": "view",
      "type": "function"
    },
    {
      "inputs": [],
      "name": "name",
      "outputs": [
        {
          "internalType": "string",
          "name": "",
          "type": "string"
        }
      ],
      "stateMutability": "view",
      "type": "function"
    },
    {
      "inputs": [],
      "name": "owner",
      "outputs": [
        {
          "internalType": "address",
          "name": "",
          "type": "address"
        }
      ],
      "stateMutability": "view",
      "type": "function"
    },
    {
      "inputs": [
        {
          "internalType": "uint256",
          "name": "tokenId",
          "type": "uint256"
        }
      ],
      "name": "ownerOf",
      "outputs": [
        {
          "internalType": "address",
          "name": "",
          "type": "address"
        }
      ],
      "stateMutability": "view",
      "type": "function"
    },
    {
      "inputs": [],
      "name": "renounceOwnership",
      "outputs": [],
      "stateMutability": "nonpayable",
      "type": "function"
    },
    {
      "inputs": [
        {
          "internalType": "address",
          "name": "to",
          "type": "address"
        }
      ],
      "name": "safeMint",
      "outputs": [],
      "stateMutability": "payable",
      "type": "function"
    },
    {
      "inputs": [
        {
          "internalType": "address",
          "name": "from",
          "type": "address"
        },
        {
          "internalType": "address",
          "name": "to",
          "type": "address"
        },
        {
          "internalType": "uint256",
          "name": "tokenId",
          "type": "uint256"
        }
      ],
      "name": "safeTransferFrom",
      "outputs": [],
      "stateMutability": "nonpayable",
      "type": "function"
    },
    {
      "inputs": [
        {
          "internalType": "address",
          "name": "from",
          "type": "address"
        },
        {
          "internalType": "address",
          "name": "to",
          "type": "address"
        },
        {
          "internalType": "uint256",
          "name": "tokenId",
          "type": "uint256"
        },
        {
          "internalType": "bytes",
          "name": "_data",
          "type": "bytes"
        }
      ],
      "name": "safeTransferFrom",
      "outputs": [],
      "stateMutability": "nonpayable",
      "type": "function"
    },
    {
      "inputs": [
        {
          "internalType": "address",
          "name": "operator",
          "type": "address"
        },
        {
          "internalType": "bool",
          "name": "approved",
          "type": "bool"
        }
      ],
      "name": "setApprovalForAll",
      "outputs": [],
      "stateMutability": "nonpayable",
      "type": "function"
    },
    {
      "inputs": [
        {
          "internalType": "bytes4",
          "name": "interfaceId",
          "type": "bytes4"
        }
      ],
      "name": "supportsInterface",
      "outputs": [
        {
          "internalType": "bool",
          "name": "",
          "type": "bool"
        }
      ],
      "stateMutability": "view",
      "type": "function"
    },
    {
      "inputs": [],
      "name": "symbol",
      "outputs": [
        {
          "internalType": "string",
          "name": "",
          "type": "string"
        }
      ],
      "stateMutability": "view",
      "type": "function"
    },
    {
      "inputs": [
        {
          "internalType": "uint256",
          "name": "tokenId",
          "type": "uint256"
        }
      ],
      "name": "tokenURI",
      "outputs": [
        {
          "internalType": "string",
          "name": "",
          "type": "string"
        }
      ],
      "stateMutability": "view",
      "type": "function"
    },
    {
      "inputs": [
        {
          "internalType": "address",
          "name": "from",
          "type": "address"
        },
        {
          "internalType": "address",
          "name": "to",
          "type": "address"
        },
        {
          "internalType": "uint256",
          "name": "tokenId",
          "type": "uint256"
        }
      ],
      "name": "transferFrom",
      "outputs": [],
      "stateMutability": "nonpayable",
      "type": "function"
    },
    {
      "inputs": [
        {
          "internalType": "address",
          "name": "newOwner",
          "type": "address"
        }
      ],
      "name": "transferOwnership",
      "outputs": [],
      "stateMutability": "nonpayable",
      "type": "function"
    }
  ],
  "bytecode": "0x6080604052662386f26fc100006008553480156200001c57600080fd5b506040518060400160405280600681526020017f52617665727300000000000000000000000000000000000000000000000000008152506040518060400160405280600381526020017f52415600000000000000000000000000000000000000000000000000000000008152508160009080519060200190620000a1929190620001b1565b508060019080519060200190620000ba929190620001b1565b505050620000dd620000d1620000e360201b60201c565b620000eb60201b60201c565b620002c6565b600033905090565b6000600660009054906101000a900473ffffffffffffffffffffffffffffffffffffffff16905081600660006101000a81548173ffffffffffffffffffffffffffffffffffffffff021916908373ffffffffffffffffffffffffffffffffffffffff1602179055508173ffffffffffffffffffffffffffffffffffffffff168173ffffffffffffffffffffffffffffffffffffffff167f8be0079c531659141344cd1fd0a4f28419497f9722a3daafe3b4186f6b6457e060405160405180910390a35050565b828054620001bf9062000261565b90600052602060002090601f016020900481019282620001e357600085556200022f565b82601f10620001fe57805160ff19168380011785556200022f565b828001600101855582156200022f579182015b828111156200022e57825182559160200191906001019062000211565b5b5090506200023e919062000242565b5090565b5b808211156200025d57600081600090555060010162000243565b5090565b600060028204905060018216806200027a57607f821691505b6020821081141562000291576200029062000297565b5b50919050565b7f4e487b7100000000000000000000000000000000000000000000000000000000600052602260045260246000fd5b612d0980620002d66000396000f3fe6080604052600436106101095760003560e01c8063715018a611610095578063b88d4fde11610064578063b88d4fde1461035a578063c87b56dd14610383578063ca0dcf16146103c0578063e985e9c5146103eb578063f2fde38b1461042857610109565b8063715018a6146102c45780638da5cb5b146102db57806395d89b4114610306578063a22cb4651461033157610109565b806323b872dd116100dc57806323b872dd146101dc57806340d097c31461020557806342842e0e146102215780636352211e1461024a57806370a082311461028757610109565b806301ffc9a71461010e57806306fdde031461014b578063081812fc14610176578063095ea7b3146101b3575b600080fd5b34801561011a57600080fd5b5061013560048036038101906101309190611d6b565b610451565b6040516101429190612194565b60405180910390f35b34801561015757600080fd5b50610160610533565b60405161016d91906121af565b60405180910390f35b34801561018257600080fd5b5061019d60048036038101906101989190611dbd565b6105c5565b6040516101aa919061212d565b60405180910390f35b3480156101bf57600080fd5b506101da60048036038101906101d59190611d2f565b61064a565b005b3480156101e857600080fd5b5061020360048036038101906101fe9190611c29565b610762565b005b61021f600480360381019061021a9190611bc4565b6107c2565b005b34801561022d57600080fd5b5061024860048036038101906102439190611c29565b61082d565b005b34801561025657600080fd5b50610271600480360381019061026c9190611dbd565b61084d565b60405161027e919061212d565b60405180910390f35b34801561029357600080fd5b506102ae60048036038101906102a99190611bc4565b6108ff565b6040516102bb91906123f1565b60405180910390f35b3480156102d057600080fd5b506102d96109b7565b005b3480156102e757600080fd5b506102f0610a3f565b6040516102fd919061212d565b60405180910390f35b34801561031257600080fd5b5061031b610a69565b60405161032891906121af565b60405180910390f35b34801561033d57600080fd5b5061035860048036038101906103539190611cf3565b610afb565b005b34801561036657600080fd5b50610381600480360381019061037c9190611c78565b610b11565b005b34801561038f57600080fd5b506103aa60048036038101906103a59190611dbd565b610b73565b6040516103b791906121af565b60405180910390f35b3480156103cc57600080fd5b506103d5610c1a565b6040516103e291906123f1565b60405180910390f35b3480156103f757600080fd5b50610412600480360381019061040d9190611bed565b610c20565b60405161041f9190612194565b60405180910390f35b34801561043457600080fd5b5061044f600480360381019061044a9190611bc4565b610cb4565b005b60007f80ac58cd000000000000000000000000000000000000000000000000000000007bffffffffffffffffffffffffffffffffffffffffffffffffffffffff1916827bffffffffffffffffffffffffffffffffffffffffffffffffffffffff1916148061051c57507f5b5e139f000000000000000000000000000000000000000000000000000000007bffffffffffffffffffffffffffffffffffffffffffffffffffffffff1916827bffffffffffffffffffffffffffffffffffffffffffffffffffffffff1916145b8061052c575061052b82610dac565b5b9050919050565b60606000805461054290612616565b80601f016020809104026020016040519081016040528092919081815260200182805461056e90612616565b80156105bb5780601f10610590576101008083540402835291602001916105bb565b820191906000526020600020905b81548152906001019060200180831161059e57829003601f168201915b5050505050905090565b60006105d082610e16565b61060f576040517f08c379a000000000000000000000000000000000000000000000000000000000815260040161060690612311565b60405180910390fd5b6004600083815260200190815260200160002060009054906101000a900473ffffffffffffffffffffffffffffffffffffffff169050919050565b60006106558261084d565b90508073ffffffffffffffffffffffffffffffffffffffff168373ffffffffffffffffffffffffffffffffffffffff1614156106c6576040517f08c379a00000000000000000000000000000000000000000000000000000000081526004016106bd90612391565b60405180910390fd5b8073ffffffffffffffffffffffffffffffffffffffff166106e5610e82565b73ffffffffffffffffffffffffffffffffffffffff16148061071457506107138161070e610e82565b610c20565b5b610753576040517f08c379a000000000000000000000000000000000000000000000000000000000815260040161074a90612291565b60405180910390fd5b61075d8383610e8a565b505050565b61077361076d610e82565b82610f43565b6107b2576040517f08c379a00000000000000000000000000000000000000000000000000000000081526004016107a9906123b1565b60405180910390fd5b6107bd838383611021565b505050565b600854341015610807576040517f08c379a00000000000000000000000000000000000000000000000000000000081526004016107fe906123d1565b60405180910390fd5b6000610813600761127d565b905061081f600761128b565b61082982826112a1565b5050565b61084883838360405180602001604052806000815250610b11565b505050565b6000806002600084815260200190815260200160002060009054906101000a900473ffffffffffffffffffffffffffffffffffffffff169050600073ffffffffffffffffffffffffffffffffffffffff168173ffffffffffffffffffffffffffffffffffffffff1614156108f6576040517f08c379a00000000000000000000000000000000000000000000000000000000081526004016108ed906122d1565b60405180910390fd5b80915050919050565b60008073ffffffffffffffffffffffffffffffffffffffff168273ffffffffffffffffffffffffffffffffffffffff161415610970576040517f08c379a0000000000000000000000000000000000000000000000000000000008152600401610967906122b1565b60405180910390fd5b600360008373ffffffffffffffffffffffffffffffffffffffff1673ffffffffffffffffffffffffffffffffffffffff168152602001908152602001600020549050919050565b6109bf610e82565b73ffffffffffffffffffffffffffffffffffffffff166109dd610a3f565b73ffffffffffffffffffffffffffffffffffffffff1614610a33576040517f08c379a0000000000000000000000000000000000000000000000000000000008152600401610a2a90612331565b60405180910390fd5b610a3d60006112bf565b565b6000600660009054906101000a900473ffffffffffffffffffffffffffffffffffffffff16905090565b606060018054610a7890612616565b80601f0160208091040260200160405190810160405280929190818152602001828054610aa490612616565b8015610af15780601f10610ac657610100808354040283529160200191610af1565b820191906000526020600020905b815481529060010190602001808311610ad457829003601f168201915b5050505050905090565b610b0d610b06610e82565b8383611385565b5050565b610b22610b1c610e82565b83610f43565b610b61576040517f08c379a0000000000000000000000000000000000000000000000000000000008152600401610b58906123b1565b60405180910390fd5b610b6d848484846114f2565b50505050565b6060610b7e82610e16565b610bbd576040517f08c379a0000000000000000000000000000000000000000000000000000000008152600401610bb490612371565b60405180910390fd5b6000610bc761154e565b90506000815111610be75760405180602001604052806000815250610c12565b80610bf18461156e565b604051602001610c02929190612109565b6040516020818303038152906040525b915050919050565b60085481565b6000600560008473ffffffffffffffffffffffffffffffffffffffff1673ffffffffffffffffffffffffffffffffffffffff16815260200190815260200160002060008373ffffffffffffffffffffffffffffffffffffffff1673ffffffffffffffffffffffffffffffffffffffff16815260200190815260200160002060009054906101000a900460ff16905092915050565b610cbc610e82565b73ffffffffffffffffffffffffffffffffffffffff16610cda610a3f565b73ffffffffffffffffffffffffffffffffffffffff1614610d30576040517f08c379a0000000000000000000000000000000000000000000000000000000008152600401610d2790612331565b60405180910390fd5b600073ffffffffffffffffffffffffffffffffffffffff168173ffffffffffffffffffffffffffffffffffffffff161415610da0576040517f08c379a0000000000000000000000000000000000000000000000000000000008152600401610d97906121f1565b60405180910390fd5b610da9816112bf565b50565b60007f01ffc9a7000000000000000000000000000000000000000000000000000000007bffffffffffffffffffffffffffffffffffffffffffffffffffffffff1916827bffffffffffffffffffffffffffffffffffffffffffffffffffffffff1916149050919050565b60008073ffffffffffffffffffffffffffffffffffffffff166002600084815260200190815260200160002060009054906101000a900473ffffffffffffffffffffffffffffffffffffffff1673ffffffffffffffffffffffffffffffffffffffff1614159050919050565b600033905090565b816004600083815260200190815260200160002060006101000a81548173ffffffffffffffffffffffffffffffffffffffff021916908373ffffffffffffffffffffffffffffffffffffffff160217905550808273ffffffffffffffffffffffffffffffffffffffff16610efd8361084d565b73ffffffffffffffffffffffffffffffffffffffff167f8c5be1e5ebec7d5bd14f71427d1e84f3dd0314c0f7b2291e5b200ac8c7c3b92560405160405180910390a45050565b6000610f4e82610e16565b610f8d576040517f08c379a0000000000000000000000000000000000000000000000000000000008152600401610f8490612271565b60405180910390fd5b6000610f988361084d565b90508073ffffffffffffffffffffffffffffffffffffffff168473ffffffffffffffffffffffffffffffffffffffff16148061100757508373ffffffffffffffffffffffffffffffffffffffff16610fef846105c5565b73ffffffffffffffffffffffffffffffffffffffff16145b8061101857506110178185610c20565b5b91505092915050565b8273ffffffffffffffffffffffffffffffffffffffff166110418261084d565b73ffffffffffffffffffffffffffffffffffffffff1614611097576040517f08c379a000000000000000000000000000000000000000000000000000000000815260040161108e90612351565b60405180910390fd5b600073ffffffffffffffffffffffffffffffffffffffff168273ffffffffffffffffffffffffffffffffffffffff161415611107576040517f08c379a00000000000000000000000000000000000000000000000000000000081526004016110fe90612231565b60405180910390fd5b61111283838361171b565b61111d600082610e8a565b6001600360008573ffffffffffffffffffffffffffffffffffffffff1673ffffffffffffffffffffffffffffffffffffffff168152602001908152602001600020600082825461116d919061252c565b925050819055506001600360008473ffffffffffffffffffffffffffffffffffffffff1673ffffffffffffffffffffffffffffffffffffffff16815260200190815260200160002060008282546111c491906124a5565b92505081905550816002600083815260200190815260200160002060006101000a81548173ffffffffffffffffffffffffffffffffffffffff021916908373ffffffffffffffffffffffffffffffffffffffff160217905550808273ffffffffffffffffffffffffffffffffffffffff168473ffffffffffffffffffffffffffffffffffffffff167fddf252ad1be2c89b69c2b068fc378daa952ba7f163c4a11628f55a4df523b3ef60405160405180910390a4505050565b600081600001549050919050565b6001816000016000828254019250508190555050565b6112bb828260405180602001604052806000815250611720565b5050565b6000600660009054906101000a900473ffffffffffffffffffffffffffffffffffffffff16905081600660006101000a81548173ffffffffffffffffffffffffffffffffffffffff021916908373ffffffffffffffffffffffffffffffffffffffff1602179055508173ffffffffffffffffffffffffffffffffffffffff168173ffffffffffffffffffffffffffffffffffffffff167f8be0079c531659141344cd1fd0a4f28419497f9722a3daafe3b4186f6b6457e060405160405180910390a35050565b8173ffffffffffffffffffffffffffffffffffffffff168373ffffffffffffffffffffffffffffffffffffffff1614156113f4576040517f08c379a00000000000000000000000000000000000000000000000000000000081526004016113eb90612251565b60405180910390fd5b80600560008573ffffffffffffffffffffffffffffffffffffffff1673ffffffffffffffffffffffffffffffffffffffff16815260200190815260200160002060008473ffffffffffffffffffffffffffffffffffffffff1673ffffffffffffffffffffffffffffffffffffffff16815260200190815260200160002060006101000a81548160ff0219169083151502179055508173ffffffffffffffffffffffffffffffffffffffff168373ffffffffffffffffffffffffffffffffffffffff167f17307eab39ab6107e8899845ad3d59bd9653f200f220920489ca2b5937696c31836040516114e59190612194565b60405180910390a3505050565b6114fd848484611021565b6115098484848461177b565b611548576040517f08c379a000000000000000000000000000000000000000000000000000000000815260040161153f906121d1565b60405180910390fd5b50505050565b6060604051806060016040528060368152602001612c9e60369139905090565b606060008214156115b6576040518060400160405280600181526020017f30000000000000000000000000000000000000000000000000000000000000008152509050611716565b600082905060005b600082146115e85780806115d190612679565b915050600a826115e191906124fb565b91506115be565b60008167ffffffffffffffff81111561162a577f4e487b7100000000000000000000000000000000000000000000000000000000600052604160045260246000fd5b6040519080825280601f01601f19166020018201604052801561165c5781602001600182028036833780820191505090505b5090505b6000851461170f57600182611675919061252c565b9150600a8561168491906126c2565b603061169091906124a5565b60f81b8183815181106116cc577f4e487b7100000000000000000000000000000000000000000000000000000000600052603260045260246000fd5b60200101907effffffffffffffffffffffffffffffffffffffffffffffffffffffffffffff1916908160001a905350600a8561170891906124fb565b9450611660565b8093505050505b919050565b505050565b61172a8383611912565b611737600084848461177b565b611776576040517f08c379a000000000000000000000000000000000000000000000000000000000815260040161176d906121d1565b60405180910390fd5b505050565b600061179c8473ffffffffffffffffffffffffffffffffffffffff16611ae0565b15611905578373ffffffffffffffffffffffffffffffffffffffff1663150b7a026117c5610e82565b8786866040518563ffffffff1660e01b81526004016117e79493929190612148565b602060405180830381600087803b15801561180157600080fd5b505af192505050801561183257506040513d601f19601f8201168201806040525081019061182f9190611d94565b60015b6118b5573d8060008114611862576040519150601f19603f3d011682016040523d82523d6000602084013e611867565b606091505b506000815114156118ad576040517f08c379a00000000000000000000000000000000000000000000000000000000081526004016118a4906121d1565b60405180910390fd5b805181602001fd5b63150b7a0260e01b7bffffffffffffffffffffffffffffffffffffffffffffffffffffffff1916817bffffffffffffffffffffffffffffffffffffffffffffffffffffffff19161491505061190a565b600190505b949350505050565b600073ffffffffffffffffffffffffffffffffffffffff168273ffffffffffffffffffffffffffffffffffffffff161415611982576040517f08c379a0000000000000000000000000000000000000000000000000000000008152600401611979906122f1565b60405180910390fd5b61198b81610e16565b156119cb576040517f08c379a00000000000000000000000000000000000000000000000000000000081526004016119c290612211565b60405180910390fd5b6119d76000838361171b565b6001600360008473ffffffffffffffffffffffffffffffffffffffff1673ffffffffffffffffffffffffffffffffffffffff1681526020019081526020016000206000828254611a2791906124a5565b92505081905550816002600083815260200190815260200160002060006101000a81548173ffffffffffffffffffffffffffffffffffffffff021916908373ffffffffffffffffffffffffffffffffffffffff160217905550808273ffffffffffffffffffffffffffffffffffffffff16600073ffffffffffffffffffffffffffffffffffffffff167fddf252ad1be2c89b69c2b068fc378daa952ba7f163c4a11628f55a4df523b3ef60405160405180910390a45050565b600080823b905060008111915050919050565b6000611b06611b0184612431565b61240c565b905082815260208101848484011115611b1e57600080fd5b611b298482856125d4565b509392505050565b600081359050611b4081612c41565b92915050565b600081359050611b5581612c58565b92915050565b600081359050611b6a81612c6f565b92915050565b600081519050611b7f81612c6f565b92915050565b600082601f830112611b9657600080fd5b8135611ba6848260208601611af3565b91505092915050565b600081359050611bbe81612c86565b92915050565b600060208284031215611bd657600080fd5b6000611be484828501611b31565b91505092915050565b60008060408385031215611c0057600080fd5b6000611c0e85828601611b31565b9250506020611c1f85828601611b31565b9150509250929050565b600080600060608486031215611c3e57600080fd5b6000611c4c86828701611b31565b9350506020611c5d86828701611b31565b9250506040611c6e86828701611baf565b9150509250925092565b60008060008060808587031215611c8e57600080fd5b6000611c9c87828801611b31565b9450506020611cad87828801611b31565b9350506040611cbe87828801611baf565b925050606085013567ffffffffffffffff811115611cdb57600080fd5b611ce787828801611b85565b91505092959194509250565b60008060408385031215611d0657600080fd5b6000611d1485828601611b31565b9250506020611d2585828601611b46565b9150509250929050565b60008060408385031215611d4257600080fd5b6000611d5085828601611b31565b9250506020611d6185828601611baf565b9150509250929050565b600060208284031215611d7d57600080fd5b6000611d8b84828501611b5b565b91505092915050565b600060208284031215611da657600080fd5b6000611db484828501611b70565b91505092915050565b600060208284031215611dcf57600080fd5b6000611ddd84828501611baf565b91505092915050565b611def81612560565b82525050565b611dfe81612572565b82525050565b6000611e0f82612462565b611e198185612478565b9350611e298185602086016125e3565b611e32816127af565b840191505092915050565b6000611e488261246d565b611e528185612489565b9350611e628185602086016125e3565b611e6b816127af565b840191505092915050565b6000611e818261246d565b611e8b818561249a565b9350611e9b8185602086016125e3565b80840191505092915050565b6000611eb4603283612489565b9150611ebf826127c0565b604082019050919050565b6000611ed7602683612489565b9150611ee28261280f565b604082019050919050565b6000611efa601c83612489565b9150611f058261285e565b602082019050919050565b6000611f1d602483612489565b9150611f2882612887565b604082019050919050565b6000611f40601983612489565b9150611f4b826128d6565b602082019050919050565b6000611f63602c83612489565b9150611f6e826128ff565b604082019050919050565b6000611f86603883612489565b9150611f918261294e565b604082019050919050565b6000611fa9602a83612489565b9150611fb48261299d565b604082019050919050565b6000611fcc602983612489565b9150611fd7826129ec565b604082019050919050565b6000611fef602083612489565b9150611ffa82612a3b565b602082019050919050565b6000612012602c83612489565b915061201d82612a64565b604082019050919050565b6000612035602083612489565b915061204082612ab3565b602082019050919050565b6000612058602983612489565b915061206382612adc565b604082019050919050565b600061207b602f83612489565b915061208682612b2b565b604082019050919050565b600061209e602183612489565b91506120a982612b7a565b604082019050919050565b60006120c1603183612489565b91506120cc82612bc9565b604082019050919050565b60006120e4601983612489565b91506120ef82612c18565b602082019050919050565b612103816125ca565b82525050565b60006121158285611e76565b91506121218284611e76565b91508190509392505050565b60006020820190506121426000830184611de6565b92915050565b600060808201905061215d6000830187611de6565b61216a6020830186611de6565b61217760408301856120fa565b81810360608301526121898184611e04565b905095945050505050565b60006020820190506121a96000830184611df5565b92915050565b600060208201905081810360008301526121c98184611e3d565b905092915050565b600060208201905081810360008301526121ea81611ea7565b9050919050565b6000602082019050818103600083015261220a81611eca565b9050919050565b6000602082019050818103600083015261222a81611eed565b9050919050565b6000602082019050818103600083015261224a81611f10565b9050919050565b6000602082019050818103600083015261226a81611f33565b9050919050565b6000602082019050818103600083015261228a81611f56565b9050919050565b600060208201905081810360008301526122aa81611f79565b9050919050565b600060208201905081810360008301526122ca81611f9c565b9050919050565b600060208201905081810360008301526122ea81611fbf565b9050919050565b6000602082019050818103600083015261230a81611fe2565b9050919050565b6000602082019050818103600083015261232a81612005565b9050919050565b6000602082019050818103600083015261234a81612028565b9050919050565b6000602082019050818103600083015261236a8161204b565b9050919050565b6000602082019050818103600083015261238a8161206e565b9050919050565b600060208201905081810360008301526123aa81612091565b9050919050565b600060208201905081810360008301526123ca816120b4565b9050919050565b600060208201905081810360008301526123ea816120d7565b9050919050565b600060208201905061240660008301846120fa565b92915050565b6000612416612427565b90506124228282612648565b919050565b6000604051905090565b600067ffffffffffffffff82111561244c5761244b612780565b5b612455826127af565b9050602081019050919050565b600081519050919050565b600081519050919050565b600082825260208201905092915050565b600082825260208201905092915050565b600081905092915050565b60006124b0826125ca565b91506124bb836125ca565b9250827fffffffffffffffffffffffffffffffffffffffffffffffffffffffffffffffff038211156124f0576124ef6126f3565b5b828201905092915050565b6000612506826125ca565b9150612511836125ca565b92508261252157612520612722565b5b828204905092915050565b6000612537826125ca565b9150612542836125ca565b925082821015612555576125546126f3565b5b828203905092915050565b600061256b826125aa565b9050919050565b60008115159050919050565b60007fffffffff0000000000000000000000000000000000000000000000000000000082169050919050565b600073ffffffffffffffffffffffffffffffffffffffff82169050919050565b6000819050919050565b82818337600083830152505050565b60005b838110156126015780820151818401526020810190506125e6565b83811115612610576000848401525b50505050565b6000600282049050600182168061262e57607f821691505b6020821081141561264257612641612751565b5b50919050565b612651826127af565b810181811067ffffffffffffffff821117156126705761266f612780565b5b80604052505050565b6000612684826125ca565b91507fffffffffffffffffffffffffffffffffffffffffffffffffffffffffffffffff8214156126b7576126b66126f3565b5b600182019050919050565b60006126cd826125ca565b91506126d8836125ca565b9250826126e8576126e7612722565b5b828206905092915050565b7f4e487b7100000000000000000000000000000000000000000000000000000000600052601160045260246000fd5b7f4e487b7100000000000000000000000000000000000000000000000000000000600052601260045260246000fd5b7f4e487b7100000000000000000000000000000000000000000000000000000000600052602260045260246000fd5b7f4e487b7100000000000000000000000000000000000000000000000000000000600052604160045260246000fd5b6000601f19601f8301169050919050565b7f4552433732313a207472616e7366657220746f206e6f6e20455243373231526560008201527f63656976657220696d706c656d656e7465720000000000000000000000000000602082015250565b7f4f776e61626c653a206e6577206f776e657220697320746865207a65726f206160008201527f6464726573730000000000000000000000000000000000000000000000000000602082015250565b7f4552433732313a20746f6b656e20616c7265616479206d696e74656400000000600082015250565b7f4552433732313a207472616e7366657220746f20746865207a65726f2061646460008201527f7265737300000000000000000000000000000000000000000000000000000000602082015250565b7f4552433732313a20617070726f766520746f2063616c6c657200000000000000600082015250565b7f4552433732313a206f70657261746f7220717565727920666f72206e6f6e657860008201527f697374656e7420746f6b656e0000000000000000000000000000000000000000602082015250565b7f4552433732313a20617070726f76652063616c6c6572206973206e6f74206f7760008201527f6e6572206e6f7220617070726f76656420666f7220616c6c0000000000000000602082015250565b7f4552433732313a2062616c616e636520717565727920666f7220746865207a6560008201527f726f206164647265737300000000000000000000000000000000000000000000602082015250565b7f4552433732313a206f776e657220717565727920666f72206e6f6e657869737460008201527f656e7420746f6b656e0000000000000000000000000000000000000000000000602082015250565b7f4552433732313a206d696e7420746f20746865207a65726f2061646472657373600082015250565b7f4552433732313a20617070726f76656420717565727920666f72206e6f6e657860008201527f697374656e7420746f6b656e0000000000000000000000000000000000000000602082015250565b7f4f776e61626c653a2063616c6c6572206973206e6f7420746865206f776e6572600082015250565b7f4552433732313a207472616e73666572206f6620746f6b656e2074686174206960008201527f73206e6f74206f776e0000000000000000000000000000000000000000000000602082015250565b7f4552433732314d657461646174613a2055524920717565727920666f72206e6f60008201527f6e6578697374656e7420746f6b656e0000000000000000000000000000000000602082015250565b7f4552433732313a20617070726f76616c20746f2063757272656e74206f776e6560008201527f7200000000000000000000000000000000000000000000000000000000000000602082015250565b7f4552433732313a207472616e736665722063616c6c6572206973206e6f74206f60008201527f776e6572206e6f7220617070726f766564000000000000000000000000000000602082015250565b7f746865206d696e696d756d20707269636520697320302e303100000000000000600082015250565b612c4a81612560565b8114612c5557600080fd5b50565b612c6181612572565b8114612c6c57600080fd5b50565b612c788161257e565b8114612c8357600080fd5b50565b612c8f816125ca565b8114612c9a57600080fd5b5056fe697066733a2f2f516d6544697a506d4d504839796d4441363845774d727134694133365272527a56335a693353415432616d5147612fa2646970667358221220549682587f644d1ada0488511d7c9dd8127cd94064da5cea09f1cd58f9019d7264736f6c63430008040033",
  "linkReferences": {},
  "deployedLinkReferences": {}
}